:100000000C94E8000C9405010C9405010C94050176
:100010000C9405010C9442010C9405010C9405010B
:100020000C9405010C9405010C9405010C94050138
:100030000C9405010C9405010C9405010C94050128
:100040000C9441070C9405010C9405010C940501D6
:100050000C9480060C943E060C9405010C9405014A
:100060000C9405010C9405010C9405010C940501F8
:100070000C9405010C9405010C94050150726573F4
:1000800073206120627574746F6E20746F207374B6
:1000900061727420616761696E0047414D45204F70
:1000A0005645520043535345323031302F373230AA
:1000B000312070726F6A65637420627920537465B1
:1000C0007068656E20476F6F6468696C6C202D20C6
:1000D00034343835323539330041737465726F69A1
:1000E0006473004E014B01470143013F013B01375F
:1000F0000133012F012B01BD01B901B501B101ADE2
:1001000001A901A501A1019E019A01960192018D0B
:10011000018901850181017C01780174016F016B06
:1001200001660161015C01570152016492927D6C8C
:1001300092926D809EA0C17C92924DE4A2A29D18E5
:100140002848FF4492926D468A926342FE037C9255
:10015000A27D868A92A2C3E0100E10E1C628102864
:10016000C7FC021C02FDF8040204F9FC0202FD8037
:1001700080FE80816492924DFE9098677C828A7C9A
:1001800003FE9090617C82827DFE2010FFFE403055
:1001900040FFFE020203FE1028C7040202FD82FE99
:1001A00083FE1010FF7C82925DFE909081FE929201
:1001B00083FE82827D7C828245FE92926D7E90904B
:1001C0007F1B5B324A001B5B25643B2564480000B3
:1001D00011241FBECFEFD8E0DEBFCDBF11E0A0E0FD
:1001E000B1E0E2E3F7E102C005900D92A632B1075B
:1001F000D9F722E0A6E2B1E001C01D92A137B20713
:10020000E1F70E94A0040C94970B0C940000E8E620
:10021000F0E0808182608083D99AECE6F0E0808112
:100220008F60808310922601089580912601181610
:100230003CF5809127016FB7F89490912601923098
:10024000B4F021E030E091E0F901E95DFE4F40813A
:10025000F901EA5DFE4F40839F5F292F30E0409116
:100260002601042E000C550B241735076CF39091D2
:10027000260191509093260166231CF478940895EA
:100280008FEF08951F920F920FB60F9211242F93A4
:100290003F934F935F936F937F938F939F93EF93CE
:1002A000FF9343B14F7080E090E0642F70E02091A5
:1002B0002601243004F59B01082E02C035952795B0
:1002C0000A94E2F720FF17C020912B0130E0082E9E
:1002D00002C0359527950A94E2F720FD0CC0E09105
:1002E000260121E02E0F209326010E2E000CFF0B7D
:1002F000E95DFE4F8083019684309105C1F64093FD
:100300002B01FF91EF919F918F917F916F915F9161
:100310004F913F912F910F900FBE0F901F90189506
:100320001F93CF93DF93182F909152018FEF890F76
:10033000482F082E000C550B292F092E000C330BCB
:100340002F5F3F4F24173507E4F0D8E0D91BC82FA3
:10035000883028F4412F6D2F80E00E94470381E010
:100360008C0F90915201D150482F082E000C550B44
:10037000292F092E000C330B2F5F3F4F2417350711
:1003800034F767E0691B412F81E00E944703DF914A
:10039000CF911F91089590E020913D01022E000C15
:1003A000330B821793076CF4462FFC01E75CFE4F7A
:1003B0008081982F92959F7067E0691B8F700E94D3
:1003C000470308954F925F926F927F928F929F9210
:1003D000AF92BF92EF92FF920F931F93CF93DF9351
:1003E00083E08093520110923D01109238010EE398
:1003F00011E00F2EF2E5EF2EF1E0FF2EF02D0F2E83
:10040000FDE08F2E912CA12CB12CF02DE8010E9443
:10041000F2072B013C010E94F207A50194010E9402
:1004200066076D5F262F2F70D301C2018770992751
:10043000AA27B078BB2354F40197A109B109886FAA
:100440009F6FAF6FBF6F0196A11DB11D30E1839FFC
:10045000B0011124622B30913801432F032E000C80
:10046000550B14161506A4F48881681781F220E054
:1004700009C0FC01E25CFE4F8081681303C02F3F7E
:1004800031F606C02F5F822F90E0841795078CF31A
:10049000F80161938F013F5F30933801EE15FF053E
:1004A00009F0B5CF0E948A038FED0E9490018091E0
:1004B0003801082E000C990B18161906FCF420E0E0
:1004C00030E0C0E0D7E0281739076CF4F901E25CAE
:1004D000FE4F8081982F92959F706D2F691B40EF82
:1004E0008F700E944703CF5F2C2F30E0809138013E
:1004F000082E000C990B281739072CF380913D0129
:10050000181684F4C0E06FE08C2F0E94CB01CF5FFF
:100510002C2F30E080913D01082E000C990B2817FC
:1005200039078CF3DF91CF911F910F91FF90EF90DE
:10053000BF90AF909F908F907F906F905F904F9003
:10054000089580E00E949001809152018150809333
:1005500052018FED0E94900181E0089580913D014C
:100560008430C4F55091520190E1599F90011124BB
:10057000422F4260682F082E000C770B16161706C4
:10058000B4F490913901941739F190E00AC0F9015F
:10059000E75CFE4F2081421304C09F3F41F080E0A2
:1005A00008959F5F292F30E02617370784F391E0E5
:1005B000980F90933D01E82FF0E0E75CFE4F90E14B
:1005C000590290011124226020836FE00E94CB0128
:1005D00081E0089580E0089580E00895FF920F93F0
:1005E0001F93CF93DF93D0E041C00D2F0D2E000C51
:1005F000110BF801E75CFE4FF080CF2DCF70CF5F7D
:10060000C03119F5DD2394F160E08D2F0E94CB01FC
:1006100021E02D0F822F90E060913D01462F062EA4
:10062000000C550B8417950764F4FC01E75CFE4F42
:100630003081319730832F5F822F90E084179507A8
:10064000A4F3615060933D0111C060E08D2F0E94C2
:10065000CB01F801E75CFE4F8F2D807FCF70C82B58
:10066000C0836FE08D2F0E94CB01DF5F80913D0141
:10067000D8170CF4BACFDF91CF911F910F91FF9053
:10068000089580E0089580E80E94D30608951F939E
:10069000CF93DF938031B0F46830A0F4142FC62FCD
:1006A000D82F81E00E94FB066C2F677080E1689F65
:1006B000900111248D2F8F70822B0E94FB06812FB9
:1006C0000E94FB06DF91CF911F9108950F931F9316
:1006D000CF93DF93803190F48B01C82F83E00E9489
:1006E000FB068C2F8F700E94FB06E801085F1F4FEE
:1006F00089910E94FB06C017D107D1F7DF91CF91F6
:100700001F910F91089584E00E94FB0682E00E94F1
:10071000FB0608958FE00E94FB0608950E944303A4
:100720000E94070140E060E07BE480E090E00E94EE
:10073000EB050E941B07789408950E9412076AE057
:1007400070E08AE090E00E94010789ED90E09F93BD
:100750008F930E9487086CE070E08AE090E00E942E
:10076000010784EA90E09F938F930E9487080E947C
:100770008A030F900F900F900F9060EF83E191E04C
:100780000E94B4040DC02FE789EA93E02150804015
:100790009040E1F700C000000E9415018F3F29F44E
:1007A0000E94C3048111EFCFE8CF08950E94E201B7
:1007B0000E9412070E94AB040E9415010E94390694
:1007C00008956F927F928F929F92AF92BF92CF9235
:1007D000DF92EF92FF920F931F93CF93DF930E94CC
:1007E00033074B015C01D0E077247A940BE612E0EA
:1007F0006894662461F85FC00E941501C82F8F3F7E
:1008000009F063C00E9432068823F1F1F80180816B
:1008100091810E944908D11105C08B3109F451C062
:10082000972D0BC0D13029F48B3509F44CC0972D8E
:1008300004C0D23029F4982F872D943411F408C0C5
:10084000972D282F2F7D2C3409F042C0D0E001C015
:10085000D0E080E00E94A10217C0803231F4D0E0E5
:1008600001C0D0E00E94AE020FC0D0E0C13061F004
:10087000923451F0CC2329F0933419F08F7D8235D6
:1008800019F481E00E94A1020E9433076B017C01F0
:100890000E94410381110FC0D501C4018C509E4FAD
:1008A000AF4FBF4FC816D906EA06FB0620F00E94DC
:1008B000EE02460157010E944103882309F49CCFB0
:1008C0000FC0D1E0E1CFD62DDFCF833011F203C0CE
:1008D000913419F6C6CF823029F2972D872DC6CFD5
:1008E000DF91CF911F910F91FF90EF90DF90CF900C
:1008F000BF90AF909F908F907F906F9008956EE023
:1009000070E08AE090E00E9401078AE990E09F93FE
:100910008F930E9487086FE070E08AE090E00E9469
:1009200001078CE790E09F938F930E9487080F90B8
:100930000F900F900F900E9415018F3FE1F30895E3
:100940000E948E030E949D030E94D6030E94E10331
:100950000E947F04F9CF109253011092540110921B
:10096000550110925601089560930401909330014F
:1009700080932F01109232011092310110922E01BA
:1009800010922D0108950F931F93CF93DF93CDB74E
:10099000DEB728970FB6F894DEBF0FBECDBFE0914B
:1009A0003101F0913201309781F0149110FF06C0AF
:1009B000109232011092310100E06BC03196F09339
:1009C0003201E093310100E064C0E0912D01F0912B
:1009D0002E01309709F449C0CF01019690932E0162
:1009E00080932D01E081E1110AC010922E01109236
:1009F0002D0180E180932C0100E010E04AC08FE9D6
:100A00008E0F8A3170F4F0E0EE0FFF1FEB5CFF4FAA
:100A100085919491909332018093310100E010E030
:100A200038C08FEB8E0F8A3170F4F0E0EE0FFF1FAD
:100A3000EB58FF4F8591949190933201809331014F
:100A400000E010E026C080ED8E0F8A3000F5F0E067
:100A5000EE0FFF1FED57FF4F859194919093320158
:100A60008093310100E010E014C080912F0190913B
:100A7000300101E0009709F000E090932E0180938F
:100A80002D011092300110922F0110E002C000E001
:100A900010E00E94830320910401FE013896CE01EC
:100AA0000196112314F4208301C01082110F319795
:100AB000E817F907B1F71982BE016F5F7F4F8FE02A
:100AC0000E94660380912C01882389F081508093D5
:100AD0002C01002311F0882311F090E003C091E075
:100AE00001C091E081E0992329F080E003C0002358
:100AF000A1F3F7CF28960FB6F894DEBF0FBECDBF97
:100B0000DF91CF911F910F910895CF93C82F8A3015
:100B100019F48DE00E9485059FB7907802C0992353
:100B200029F1809158018F3FD1F3F894E09157015A
:100B300081E08E0F80935701F0E0E75AFE4FC083AB
:100B4000809158018F5F80935801809157018F3FAA
:100B500011F410925701E1ECF0E080818062808313
:100B6000992339F0789480E090E005C081E090E02E
:100B700002C080E090E0CF91089580916A028823BE
:100B8000E1F32FB72078F8948091580230916A02EF
:100B900090E0831B91095AF4E091580280916A0217
:100BA000F0E0E81BF109E759FD4F80810AC0E091B0
:100BB000580280916A02F0E0E81BF109E75AFD4F04
:100BC000808190916A02915090936A02222309F0E9
:100BD000789490E008951092570110925801109265
:100BE000580210926A021092690240933301DC01AC
:100BF000CB01880F991FAA1FBB1F880F991FAA1F1F
:100C0000BB1F9C01AD01220F331F441F551F60E025
:100C100072E18AE790E00E946607BA01A9014F5F7E
:100C20005F4F6F4F7F4FDB01CA011AF40196A11D80
:100C3000B11DB595A7959795879501979093C50098
:100C40008093C400E1ECF0E088E1808380818068DB
:100C50008083EBE6F2E085E091E0938382839183E9
:100C60008083089590916A0281E0911101C080E033
:100C700008951092580210926A0208951F920F92DE
:100C80000FB60F9211242F938F939F93EF93FF939F
:100C900080915801882329F18091570120915801B2
:100CA00090E0821B91095AF4E0915701809158011C
:100CB000F0E0E81BF109E85AFD4F90810AC0E0918D
:100CC000570180915801F0E0E81BF109E75AFE4F07
:100CD0009081809158018150809358019093C60073
:100CE00005C0E1ECF0E080818F7D8083FF91EF9182
:100CF0009F918F912F910F900FBE0F901F9018957D
:100D00001F920F920FB60F9211242F933F934F9380
:100D10005F936F937F938F939F93AF93BF93CF9383
:100D2000EF93FF93C091C60080913301882349F06F
:100D3000809158018F3F29F060E070E08C2F0E9475
:100D4000850580916A02803120F081E080936902FC
:100D500018C0CD3009F4CAE0E091580281E08E0F4E
:100D600080935802F0E0E75AFD4FC08380916A02F9
:100D70008F5F80936A0280915802803111F4109243
:100D80005802FF91EF91CF91BF91AF919F918F91B9
:100D90007F916F915F914F913F912F910F900FBE77
:100DA0000F901F90189594B1906B94B92C9A90E580
:100DB0009CBD883021F0803211F0823019F491E02E
:100DC0009DBD01C01DBC803269F028F4883071F0EF
:100DD000803161F00EC0803429F0803851F48CB538
:100DE00081608CBD8CB582608CBD03C08CB5816088
:100DF0008CBD2C9808958EBD0DB407FEFDCF8EB529
:100E000008959F938F937F936F9386EC91E09F93C8
:100E10008F930E9487080F900F900F900F900F9064
:100E20000F90089581EC91E09F938F930E94870823
:100E30000F900F9008951092340110923501109286
:100E400036011092370116BC8CE787BD82E084BD65
:100E500083E085BDEEE6F0E080818260808385B32B
:100E6000827085BB08952FB7F8946091340170911A
:100E70003501809136019091370122230CF478944A
:100E800008951F920F920FB60F9211248F939F9384
:100E9000AF93BF938091340190913501A0913601B9
:100EA000B09137010196A11DB11D8093340190933B
:100EB0003501A0933601B0933701BF91AF919F9157
:100EC0008F910F900FBE0F901F901895052E97FBD6
:100ED0001EF400940E947D0757FD07D00E948507ED
:100EE00007FC03D04EF40C947D0750954095309547
:100EF00021953F4F4F4F5F4F089590958095709586
:100F000061957F4F8F4F9F4F0895A1E21A2EAA1B24
:100F1000BB1BFD010DC0AA1FBB1FEE1FFF1FA217A9
:100F2000B307E407F50720F0A21BB30BE40BF50BA6
:100F3000661F771F881F991F1A9469F7609570952F
:100F4000809590959B01AC01BD01CF0108958F92D2
:100F50009F92AF92BF92CF92DF92EF92FF92CF9388
:100F6000DF93EC01688179818A819B81611571052C
:100F70008105910521F464E279ED8BE597E02DE19F
:100F800033EF41E050E00E94660749015A019B019E
:100F9000AC01A7EAB1E40E943E0B6B017C01ACEE10
:100FA000B4EFA50194010E944C0BDC01CB018C0D28
:100FB0009D1DAE1DBF1DB7FF03C00197A109B0481D
:100FC00088839983AA83BB83BC01CD019F77DF917E
:100FD000CF91FF90EF90DF90CF90BF90AF909F9018
:100FE0008F9008958F929F92AF92BF92CF92DF928F
:100FF000EF92FF92609100017091010180910201D6
:1010000090910301611571058105910521F464E258
:1010100079ED8BE597E02DE133EF41E050E00E9460
:10102000660749015A019B01AC01A7EAB1E40E949D
:101030003E0B6B017C01ACEEB4EFA50194010E9464
:101040004C0BDC01CB018C0D9D1DAE1DBF1DB7FFF0
:1010500003C00197A109B04880930001909301015A
:10106000A0930201B0930301BC01CD019F77FF90D3
:10107000EF90DF90CF90BF90AF909F908F900895AA
:10108000609300017093010180930201909303012A
:101090000895CF93DF93EC012B8120FF33C026FF0F
:1010A0000AC02F7B2B838E819F8101969F838E8325
:1010B0008A8190E029C022FF0FC0E881F9818081F8
:1010C000082E000C990B009719F420622B831AC08C
:1010D0003196F983E8830EC0EA85FB85099597FF71
:1010E00009C02B81019611F080E201C080E1822BC2
:1010F0008B8308C02E813F812F5F3F4F3F832E831C
:10110000992702C08FEF9FEFDF91CF910895A0E064
:10111000B0E0EDE8F8E00C945F0BAE01495F5F4F83
:10112000DA016D917D91AD010BE612E0F80182814B
:101130009381DC0113962C911397286013962C93BE
:101140000E94AD08D8011296ED91FC91139723816E
:10115000277F2383E4E00C947B0BABE0B0E0E3EB70
:10116000F8E00C94510B6C017B018A01FC011782A1
:101170001682838181FFCCC1CE0101963C01F6012C
:101180009381F70193FD859193FF81917F018823DE
:1011900009F4BAC1853239F493FD859193FF8191A9
:1011A0007F01853229F4B60190E00E94A40AE7CFBE
:1011B000912C212C312CFFE1F315D8F08B3279F0F2
:1011C00038F4803279F08332A1F4232D20611DC0E0
:1011D0008D3261F0803369F4232D216016C0832D98
:1011E0008260382EE32DE4603E2E2AC0F32DF86095
:1011F0001DC037FC2DC020ED280F2A3040F08E3264
:10120000B9F436FC81C1232D2064322E19C036FE7C
:1012100006C08AE0989E200D1124922E11C0EAE0AB
:101220002E9E200D1124222EF32DF0623F2E08C099
:101230008C3621F4832D8068382E02C0883641F424
:10124000F70193FD859193FF81917F018111B3CFC8
:10125000982F9F7D9554933028F40C5F1F4F9FE388
:1012600099830DC0833631F0833771F0833509F0EF
:1012700059C021C0F801808189830E5F1F4F8824E7
:101280008394912C530113C02801F2E04F0E511C9E
:10129000F801A080B18036FE03C0692D70E002C065
:1012A0006FEF7FEFC5010E94990A4C018201F32D77
:1012B000FF773F2E16C0280122E0420E511CF80194
:1012C000A080B18036FE03C0692D70E002C06FEFD0
:1012D0007FEFC5010E948E0A4C01F32DF0683F2E6E
:1012E000820133FC1BC0822D90E088169906B0F471
:1012F000B60180E290E00E94A40A2A94F4CFF5019E
:1013000037FC859137FE81915F01B60190E00E9424
:10131000A40A21102A9421E0821A910881149104D0
:1013200071F7E8C0843611F0893641F5F80137FECF
:1013300007C060817181828193810C5F1F4F08C05B
:1013400060817181072E000C880B990B0E5F1F4F77
:10135000F32DFF763F2E97FF09C0909580957095ED
:1013600061957F4F8F4F9F4FF0683F2E2AE030E00E
:10137000A3010E94E00A882E861845C0853731F403
:10138000232D2F7EB22E2AE030E025C0932D997FA9
:10139000B92E8F36C1F018F4883579F0B5C0803792
:1013A00019F0883721F0B0C0E92FE061BE2EB4FEFD
:1013B0000DC0FB2DF460BF2E09C034FE0AC0292FDA
:1013C0002660B22E06C028E030E005C020E130E003
:1013D00002C020E132E0F801B7FE07C060817181F0
:1013E000828193810C5F1F4F06C06081718180E014
:1013F00090E00E5F1F4FA3010E94E00A882E86181E
:10140000FB2DFF773F2E36FE0DC0232D2E7FA22E03
:10141000891458F434FE0BC032FC09C0832D8E7E33
:10142000A82E05C0B82CA32C03C0B82C01C0B92C21
:10143000A4FE0FC0FE01E80DF11D8081803321F470
:101440009A2D997EA92E09C0A2FE06C0B394B3942A
:1014500004C08A2D867809F0B394A3FC11C0A0FEC5
:1014600006C0B21488F4280C922C9B180EC0B2143B
:1014700060F4B60180E290E00E94A40AB394F7CF32
:10148000B21418F42B1802C0982C212CA4FE10C002
:10149000B60180E390E00E94A40AA2FE17C0A1FC5E
:1014A00003C088E790E002C088E590E0B6010CC078
:1014B0008A2D867859F0A1FE02C08BE201C080E23D
:1014C000A7FC8DE2B60190E00E94A40A891438F4CA
:1014D000B60180E390E00E94A40A9A94F7CF8A9420
:1014E000F301E80DF11D8081B60190E00E94A40A8D
:1014F0008110F5CF222009F442CEB60180E290E0BF
:101500000E94A40A2A94F6CFF6018681978102C030
:101510008FEF9FEF2B96E2E10C946D0BFC01059091
:10152000615070400110D8F7809590958E0F9F1FE5
:101530000895FC016150704001900110D8F780952A
:1015400090958E0F9F1F08950F931F93CF93DF9356
:10155000FB01238121FD03C08FEF9FEF2CC022FFF1
:1015600016C046815781248135814217530744F4C0
:10157000A081B1819D012F5F3F4F318320838C93E8
:10158000268137812F5F3F4F3783268314C08B011D
:10159000EC01FB010084F185E02D0995892BE1F632
:1015A000D80116968D919C911797019617969C934A
:1015B0008E931697CE01DF91CF911F910F910895D1
:1015C000FA01AA27283051F1203181F1E8946F9374
:1015D0006E7F6E5F7F4F8F4F9F4FAF4FB1E03ED01A
:1015E000B4E03CD0670F781F891F9A1FA11D680FB8
:1015F000791F8A1F911DA11D6A0F711D811D911DEB
:10160000A11D20D009F468943F912AE0269F11245F
:101610003019305D3193DEF6CF010895462F4770C3
:10162000405D4193B3E00FD0C9F7F6CF462F4F701E
:10163000405D4A3318F0495D31FD4052419302D07C
:10164000A9F7EACFB4E0A695979587957795679522
:10165000BA95C9F700976105710508959B01AC0122
:101660000A2E06945795479537952795BA95C9F749
:10167000620F731F841F951FA01D08950E94880B81
:10168000A59F900DB49F900DA49F800D911D1124D6
:101690000895B7FF0C943E0B0E943E0B821B930BE8
:1016A00008952F923F924F925F926F927F928F9206
:1016B0009F92AF92BF92CF92DF92EF92FF920F93E1
:1016C0001F93CF93DF93CDB7DEB7CA1BDB0B0FB6EB
:1016D000F894DEBF0FBECDBF09942A8839884888A8
:1016E0005F846E847D848C849B84AA84B984C8843E
:1016F000DF80EE80FD800C811B81AA81B981CE0F35
:10170000D11D0FB6F894DEBF0FBECDBFED01089519
:10171000A29FB001B39FC001A39F700D811D112432
:10172000911DB29F700D811D1124911D0895F89493
:02173000FFCFE9
:10173200010000000F00000003000000008505BD4D
:1017420005000041535445524F4944532034343824
:0617520035323539330089
:00000001FF
