:100000000C9453010C9470010C9470010C947001C9
:100010000C9470010C94AD010C9470010C9470015F
:100020000C9470010C9470010C9470010C9470018C
:100030000C9470010C9470010C9470010C9470017C
:100040000C94820D0C9470010C9470010C9470014E
:100050000C94950B0C94530B0C9470010C94700140
:100060000C9470010C9470010C9470010C9470014C
:100070000C9470010C9470010C94700150726573B3
:1000800073206120627574746F6E20746F207374B6
:1000900061727420616761696E2E004173746572CC
:1000A0006F696473202D2047414D45204F564552BE
:1000B00021005072657373207468652070617573D8
:1000C0006520627574746F6E20746F20726573752D
:1000D0006D652E0041737465726F696473202D2005
:1000E000504155534544210052652D737061776E20
:1000F000696E6720696E2033207365636F6E647369
:100100002E2E2E0041737465726F696473202D204A
:10011000594F5520444945442100435353453230FB
:1001200031302F373230312070726F6A656374203E
:100130006279205374657068656E20476F6F6468DC
:10014000696C6C202D2034343835323539332E002B
:1001500041737465726F6964732100C601C301BF86
:1001600001BB01B701B301AF01AB01A701A3013589
:100170000231022D022902250221021D0219021656
:100180000212020E020A0205020102FD01F901F447
:1001900001F001EC01E701E301DE01D901D401CF57
:1001A00001CA016492927D6C92926D809EA0C17C86
:1001B00092924DE4A2A29D182848FF4492926D4667
:1001C0008A926342FE037C92A27D868A92A2C3E059
:1001D000100E10E1C6281028C7FC021C02FDF8040E
:1001E0000204F9FC0202FD8080FE80816492924D3F
:1001F000FE9098677C828A7C03FE9090617C82826C
:100200007DFE2010FFFE403040FFFE020203FE1084
:1002100028C7040202FD82FE83FE1010FF7C82923A
:100220005DFE909081FE929283FE82827D7C82822E
:1002300045FE92926D7E90907F284E756D6265723C
:10024000206F66206C697665732072656D61696EDA
:10025000696E6729004C697665733A202533640A14
:1002600000284E756D626572206F6620617374653B
:10027000726F69647320686974290053636F7265D3
:100280003A202533640A001B5B421B5B44001B5B66
:10029000324A001B5B376D001B5B306D001B5B251A
:1002A000643B2564480011241FBECFEFD8E0DEBFB9
:1002B000CDBF11E0A0E0B1E0E6EEF3E202C00590B0
:1002C0000D92A234B107D9F722E0A2E4B1E001C057
:1002D0001D92A539B207E1F70E9497090C94F1111C
:1002E0000C940000E8E6F0E0808182608083D99A77
:1002F000ECE6F0E080818F608083109242010895E7
:100300008091420118163CF5809143016FB7F89433
:10031000909142019230B4F021E030E091E0F90197
:10032000ED5BFE4F4081F901EE5BFE4F40839F5F26
:10033000292F30E040914201042E000C550B241768
:1003400035076CF3909142019150909342016623DE
:100350001CF4789408958FEF08951F920F920FB6B2
:100360000F9211242F933F934F935F936F937F933B
:100370008F939F93EF93FF9343B14F7080E090E092
:10038000642F70E020914201243004F59B01082E77
:1003900002C0359527950A94E2F720FF17C02091F7
:1003A000470130E0082E02C0359527950A94E2F700
:1003B00020FD0CC0E091420121E02E0F209342016C
:1003C0000E2E000CFF0BED5BFE4F808301968430F8
:1003D0009105C1F640934701FF91EF919F918F9155
:1003E0007F916F915F914F913F912F910F900FBE31
:1003F0000F901F90189520E1829FC00111246F700B
:10040000862B40915801042E000C550B141615062E
:10041000C4F490915E01891749F090E00AC0F90197
:10042000E25AFE4F2081821304C001C090E0892F60
:1004300008959F5F292F30E02417350784F38FEF4D
:1004400008958FEF089520E1829FC00111246F70FD
:10045000862B40915D01042E000C550B14161506D9
:10046000C4F490915901891749F090E00AC0F9014C
:10047000E75AFE4F2081821304C001C090E0892F0B
:1004800008959F5F292F30E02417350784F38FEFFD
:1004900008958FEF08951F93CF93DF93182F9091B6
:1004A00072018FEF890F482F082E000C550B292F52
:1004B000092E000C330B2F5F3F4F24173507E4F054
:1004C000D8E0D91BC82F883028F4412F6D2F80E049
:1004D0000E94390681E08C0F90917201D150482F13
:1004E000082E000C550B292F092E000C330B2F5F03
:1004F0003F4F2417350734F767E0691B412F81E030
:100500000E943906DF91CF911F91089590E02091CC
:100510005801022E000C330B821793076CF4462F00
:10052000FC01E25AFE4F8081982F92959F7067E000
:10053000691B8F700E9439060895CF9380915801EE
:10054000181684F4C0E060EF8C2F0E948602CF5F03
:100550002C2F30E080915801082E000C990B2817A1
:1005600039078CF3CF910895CF9388230CF19091A4
:1005700058018917ECF4C82F60E00E9486028C2F86
:10058000CC0F990B40915801242F042E000C330BF3
:10059000215031098217930744F4F901E25AFE4FC2
:1005A0002081FC01E25AFE4F2083415040935801C4
:1005B000CF91089590E020915D01022E000C330B45
:1005C000821793076CF4462FFC01E75AFE4F808197
:1005D000982F92959F7067E0691B8F700E94390673
:1005E0000895CF93882324F190915D01891704F534
:1005F000C82F60E00E94DA0281E08C0F282F30E0E3
:1006000060915D01462F062E000C550B241735070F
:1006100064F4F901E75AFE4F9081319790838F5F20
:10062000282F30E024173507A4F3615060935D0153
:10063000CF910895CF92DF92EF92FF92CF930E94D5
:10064000B4020E94B006623071058105910538F14F
:10065000C0E04CE36C2F80E00E943906CF5FC830C9
:10066000C1F7C0E04CE36C2F81E00E943906CF5FF8
:10067000C830C1F780E00E944B0281E090E00E9408
:1006800090060E94B0066B017C010E94C009A70180
:1006900096010E94E50C81E08093480114C08FE030
:1006A0000E944B0281E090E00E9490060E94B006FA
:1006B0006B017C010E94C009A70196010E94E50C14
:1006C00081E080934A01CF91FF90EF90DF90CF902F
:1006D00008954F925F926F927F92AF92BF92CF92A6
:1006E000DF92EF92FF920F931F93CF93DF931092BD
:1006F0004A01109249011092480183E080937201EF
:1007000010925D01109258010EE511E00F2EF2E7F4
:10071000AF2EF1E0BF2EF02D0F2EFDE04F2E512C0D
:10072000612C712CF02D0E94450E6B017C0127E09D
:10073000C222DD24EE2420E8F222FF2084F481E0AE
:10074000C81AD108E108F108E8EFCE2ADD24DA94CE
:10075000ED2CFE2CFFEFCF1ADF0AEF0AFF0A0E94F2
:10076000450EA30192010E94DB0DC3E0C60F6C2F62
:100770008C2D0E94FB018F3FB1F620E1C29EB0019B
:100780001124CF70C62BF801C1938F0180915801BD
:100790008F5F80935801EA15FB0529F60E947C06BD
:1007A0008FED0E944B020E949D0280915D01181600
:1007B00084F4C0E06FE08C2F0E94DA02CF5F2C2F10
:1007C00030E080915D01082E000C990B2817390745
:1007D0008CF3DF91CF911F910F91FF90EF90DF90FD
:1007E000CF90BF90AF907F906F905F904F900895A3
:1007F000CF93C82F80E00E944B02C11112C080919C
:1008000072011816FCF4CFEFC80F60E08C2F0E9425
:10081000FB018F3F19F00E941A0314C0C0937201AC
:1008200011C08091720187306CF4C1E0C80F60E0A4
:100830008C2F0E94FB018F3F19F00E941A0302C007
:10084000C09372018FED0E944B0281E0CF91089519
:10085000CF93DF93C0915D01C430C4F4D091720195
:1008600061E08D2F0E9423028F3F91F481E08C0F75
:1008700080935D01EC2FF0E0E75AFE4F20E1D202B9
:10088000C00111248160808381E003C080E001C049
:1008900080E0DF91CF910895EF92FF921F93CF9365
:1008A000DF9310E02BC0E12E012E000CFF08F701B2
:1008B000E75AFE4FC081DC2FD295DF70CF70CF5F3B
:1008C000C03121F4812F0E94F10218C0C33020F002
:1008D00060E0812F0E94DA02F701E75AFE4F20E123
:1008E000D29FC00111249C2F9F70892B8083C2301E
:1008F00020F06FE0812F0E94DA021F5F80915D017E
:1009000018178CF2DF91CF911F91FF90EF9008950F
:1009100080914A010895CF93DF93D0915801D3314C
:1009200069F160F50E94450EDC01CB0187709927C3
:10093000AA27B078BB2354F40197A109B109886FA5
:100940009F6FAF6FBF6F0196A11DB11DC82F6FE0E4
:100950000E94FB018F3F31F7ED2FF0E0E25AFE4F8E
:1009600020E1C29FC00111248F60808380915801D3
:100970008F5F80935801DF5FD431A1F60E949D0202
:10098000DF91CF910895CF92DF92EF92FF92CF93B4
:1009900080915D0118167CF580E090E0C0E0FC01DC
:1009A000E75AFE4F8081682F6F7082958F700E948A
:1009B000FB018F3FA9F00E94B4028C2F0E94F1022C
:1009C00081E090E00E94AB090E94930C0E94B00667
:1009D0006B017C010E94C009A70196010E94E50CF1
:1009E000CF5F8C2F90E020915D01022E000C330B25
:1009F00082179307A4F28FED0E944B02CF91FF90D4
:100A0000EF90DF90CF900895CF92DF92EF92FF9218
:100A10001F93CF93DF93809158011816B4F580E0AF
:100A200090E0D0E0FC01E25AFE4F6081162F129553
:100A30001F70C62FCF706C2F812F0E9423028F3F13
:100A4000C9F08D2F0E94B4026C2F812F0E942302C7
:100A50000E94F10281E090E00E94AB090E94930C99
:100A60000E94B0066B017C010E94C009A70196019B
:100A70000E94E50CDF5F8D2F90E020915801022E3F
:100A8000000C330B821793076CF2DF91CF911F910B
:100A9000FF90EF90DF90CF900895CF93C0917201B7
:100AA00060E08C2F0E94FB018F3F19F00E941A0317
:100AB0001CC060E081E08C0F0E94FB018F3F19F0A9
:100AC0000E941A0312C060E08FEF8C0F0E94FB019E
:100AD0008F3F19F00E941A0308C061E08C2F0E941A
:100AE000FB018F3F11F00E941A03CF910895CF931D
:100AF000DF93C82FD62F0E94450EDC01CB018170F9
:100B00009927AA27B078BB2354F40197A109B1090A
:100B10008E6F9F6FAF6FBF6F0196A11DB11D682FC4
:100B200070E0FB01EC5FFE4F40816D2F8C2F0E9427
:100B30003906DF91CF910895809149010895809100
:100B400048010895CF93809148018823C9F0C0E0FF
:100B500040E06C2F80E00E943906CF5FC830C1F7BB
:100B6000C0E040E06C2F81E00E943906CF5FC830C2
:100B7000C1F70E949D02109248018FED0E944B0226
:100B8000CF910895CF93C82F0E949D02C11117C025
:100B900040E06C2F80E00E943906CF5FC830C1F77B
:100BA000C0E040E06C2F81E00E943906CF5FC83082
:100BB000C1F70E949D028FE00E944B0217C0C13016
:100BC000A9F4C0E04CE36C2F80E00E943906CF5FAF
:100BD000C830C1F7C0E04CE36C2F81E00E943906B9
:100BE000CF5FC830C1F780E00E944B02CF910895DB
:100BF00080914901811104C081E0809349010895E9
:100C0000109249010895FF920F931F93CF93DF93A2
:100C1000D0E021C00D2F0D2E000C110BF801E25A6F
:100C2000FE4FF080CF2DCF7021F48D2F0E94B402A3
:100C300012C060E08D2F0E948602F801E25AFE4F3A
:100C40008F2D807FC150CF70C82BC08360EF8D2F58
:100C50000E948602DF5F80915801D817DCF2DF9195
:100C6000CF911F910F91FF90089580E80E94E80BAB
:100C700008951F93CF93DF938031B0F46830A0F4D0
:100C8000142FC62FD82F81E00E94100C6C2F677094
:100C900080E1689F900111248D2F8F70822B0E941C
:100CA000100C812F0E94100CDF91CF911F9108959D
:100CB0000F931F93CF93DF93803190F48B01C82F54
:100CC00083E00E94100C8C2F8F700E94100CE801A2
:100CD000085F1F4F89910E94100CC017D107D1F7F0
:100CE000DF91CF911F910F91089584E00E94100C25
:100CF00082E00E94100C08958FE00E94100C08956D
:100D000084E090E0A0E0B0E08093730190937401E0
:100D1000A0937501B09376018FE081B982B90895EF
:100D20000F931F934091730150917401609175016D
:100D3000709176018A019B01081B190B2109310969
:100D40000093730110937401209375013093760121
:100D5000F801EA5FFE4F808182B91F910F910895DB
:100D60006091730170917401809175019091760189
:100D700008950E9435060E94720140E060E07BE425
:100D800080E090E00E94000B0E945C0D7894089532
:100D9000CF92DF92EF92FF920E94930C63E070E09B
:100DA0008AE090E00E94700C80E591E09F938F9321
:100DB0000E94DA0E65E070E08AE090E00E94700C1C
:100DC0008AE191E09F938F930E94DA0E0E94B00611
:100DD0006B017C010E94C009A70196010E94E50CED
:100DE0000E947C060F900F900F900F9060EF84E2AE
:100DF00091E00E94C9090DC02FE789EA93E02150D4
:100E000080409040E1F700C000000E9480018F3FC9
:100E100029F40E94D8098111EFCFE8CFFF90EF901D
:100E2000DF90CF900895CF92DF92EF92FF920E94D1
:100E300069030E94930C0E94A2090E9480060E94EE
:100E4000160C0E94B0066B017C010E94C009A7012C
:100E500096010E94E50C0E9480010E944E0BFF90BB
:100E6000EF90DF90CF900895CF92DF92EF92FF92B4
:100E7000CF930E94930C63E070E08AE090E00E94C0
:100E8000700C84E091E09F938F930E94DA0E65E0EE
:100E900070E08AE090E00E94700C88EE90E09F93F2
:100EA0008F930E94DA0E0E94B0066B017C010E94B3
:100EB000C009A70196010E94E50C0F900F900F90BA
:100EC0000F90C5E00E9480010E944E0B80E00E94BE
:100ED000C2052FE78AE196E0215080409040E1F77B
:100EE00000C0000081E00E94C2052FE78AE196E081
:100EF000215080409040E1F700C00000C15011F740
:100F00000E94A2050E94930C0E94B0066B017C0116
:100F10000E94C009A70196010E94E50CCF91FF90A5
:100F2000EF90DF90CF900895CF92DF92EF92FF92F3
:100F3000CF93DF930E94930C63E070E08AE090E02F
:100F40000E94700C84ED90E09F938F930E94DA0EC4
:100F500065E070E08AE090E00E94700C82EB90E027
:100F60009F938F930E94DA0E0E94B0066B017C0162
:100F70000E94C009A70196010E94E50C0F900F90F6
:100F80000F900F90CFE8D2E00BC00E94470B882350
:100F900039F0888199810E949C0E8F7D803521F0E7
:100FA0000E948001813089F70E94F8050E94930C0D
:100FB0000E94B0066B017C010E94C009A701960146
:100FC0000E94E50CDF91CF91FF90EF90DF90CF90E2
:100FD00008952F923F924F925F926F927F928F92DD
:100FE0009F92AF92BF92CF92DF92EF92FF920F93B8
:100FF0001F93CF93DF93CDB7DEB729970FB6F89441
:10100000DEBF0FBECDBF0E94740D4B015C016D832E
:101010007E838F83988769837A838B839C836B011C
:101020007C012B013C0119860F2EFFE82F2EF2E0E8
:101030003F2EF02DE0C00E949C05811104C00E944B
:101040009F05882339F10E94C00914EF1819C10EB9
:10105000862F880F680F1C2D161B8AEF8819480EE3
:101060000E949C0581110E9494070E949F05811196
:101070000E9434070E94740D9B01AC0124193109B0
:101080004109510929013A016B017C01C11AD108BA
:10109000E108F1080E948001182F8F3F09F0B7C0C6
:1010A0000E94470B882309F446C0F1018081918199
:1010B0000E949C0EF985F11105C08B3109F4A1C085
:1010C0009FEF0DC02985213029F48B3509F49CC090
:1010D0009FEF05C03985323029F4982F8FEF943473
:1010E00011F408C09FEF282F2F7D2C3409F093C0F6
:1010F000198601C0198680E00E94F8031CC0803266
:1011000031F4198601C019860E94280414C019867A
:10111000113089F0923479F0112329F0933419F0C9
:101120008F7D823521F481E00E94F80304C0803570
:1011300011F40E94F8050E94740D4B015C010E949D
:101140008804811158C089819A81AB81BC81019644
:10115000A11DB11D88169906AA06BB0650F00E9473
:10116000C3040E9404050E948B0489829A82AB8288
:10117000BC828D819E81AF81B8854996A11DB11D2C
:1011800088169906AA06BB0630F00E944D058D828E
:101190009E82AF82B886D301C20186509F4FAF4F67
:1011A000BF4F88169906AA06BB0620F00E944C0481
:1011B000240135010E94C0098B019C01000F111F01
:1011C000221F331FAB01BC01400F511F621F731F51
:1011D000D701C6018C509E4FAF4FBF4F841B950B5C
:1011E000A60BB70B88169906AA06BB0620F00E942C
:1011F0000306750164010E948804882309F41BCF4B
:1012000014C041E0498797CF52E0598794CF83308B
:1012100009F471CF04C0913409F071CF74CF8230DA
:1012200009F472CF9FEF8FEF73CF29960FB6F89422
:10123000DEBF0FBECDBFDF91CF911F910F91FF9009
:10124000EF90DF90CF90BF90AF909F908F907F9066
:101250006F905F904F903F902F900895CF92DF92C4
:10126000EF92FF92CF93DF930E94930C63E070E0C4
:101270008AE090E00E94700C8BE990E09F938F933E
:101280000E94DA0E65E070E08AE090E00E94700C47
:101290008CE790E09F938F930E94DA0E0E94B00635
:1012A0006B017C010E94C009A70196010E94E50C18
:1012B0000E9480010E944E0B0F900F900F900F9094
:1012C000D0E0C0E008C00E9480010E944E0BC031F7
:1012D00010F0DF5FC0E06D2F8C2F0E947705CF5F8D
:1012E0008FE493EC0197F1F700C00000D83058F379
:1012F0006FE087E391E00E94C9090DC09FE729EAEA
:1013000083E0915020408040E1F700C000000E943F
:1013100080018F3F29F40E94D8098111EFCFE8CFD7
:10132000DF91CF91FF90EF90DF90CF9008950E94D2
:10133000B9060E94C8060E9413070E94E9070E948E
:101340002E09F9CF1092770110927801109279014D
:1013500010927A010895409177015091780160913F
:10136000790170917A01480F591F611D711D4093D9
:101370007701509378016093790170937A01089511
:1013800060917701709178018091790190917A0153
:10139000089560930A0190934F0180934E0110923B
:1013A00051011092500110924D0110924C0108957C
:1013B0000F931F93CF93DF93CDB7DEB728970FB668
:1013C000F894DEBF0FBECDBFE0915001F091510106
:1013D000309781F0149110FF06C0109251011092C5
:1013E000500100E06BC03196F0935101E093500141
:1013F00000E064C0E0914C01F0914D01309709F498
:1014000049C0CF01019690934D0180934C01E0813A
:10141000E1110AC010924D0110924C0180E18093BD
:101420004B0100E010E04AC08FE98E0F8A3170F462
:10143000F0E0EE0FFF1FE355FF4F859194919093DD
:1014400051018093500100E010E038C08FEB8E0F07
:101450008A3170F4F0E0EE0FFF1FE351FF4F8591EA
:101460009491909351018093500100E010E026C0C8
:1014700080ED8E0F8A3000F5F0E0EE0FFF1FE55093
:10148000FF4F85919491909351018093500100E01A
:1014900010E014C080914E0190914F0101E000973F
:1014A00009F000E090934D0180934C0110924F01A0
:1014B00010924E0110E002C000E010E00E9475069C
:1014C00020910A01FE013896CE010196112314F4F1
:1014D000208301C01082110F3197E817F907B1F787
:1014E0001982BE016F5F7F4F8FE00E945806809186
:1014F0004B01882389F0815080934B01002311F028
:10150000882311F090E003C091E001C091E081E0F8
:10151000992329F080E003C00023A1F3F7CF289698
:101520000FB6F894DEBF0FBECDBFDF91CF911F91F4
:101530000F910895CF93C82F8A3019F48DE00E943F
:101540009A0A9FB7907802C0992329F180917C0173
:101550008F3FD1F3F894E0917B0181E08E0F80936F
:101560007B01F0E0E358FE4FC08380917C018F5FE8
:1015700080937C0180917B018F3F11F410927B015D
:10158000E1ECF0E0808180628083992339F07894E7
:1015900080E090E005C081E090E002C080E090E053
:1015A000CF91089580918E028823E1F32FB72078A0
:1015B000F89480917C0230918E0290E0831B910917
:1015C0005AF4E0917C0280918E02F0E0E81BF10970
:1015D000E357FD4F80810AC0E0917C0280918E022A
:1015E000F0E0E81BF109E358FD4F808190918E02F5
:1015F000915090938E02222309F0789490E0089500
:1016000010927B0110927C0110927C0210928E024B
:1016100010928D0240935201DC01CB01880F991F7B
:10162000AA1FBB1F880F991FAA1FBB1F9C01AD01DA
:10163000220F331F441F551F60E072E18AE790E0DC
:101640000E94DB0DBA01A9014F5F5F4F6F4F7F4FC3
:10165000DB01CA011AF40196A11DB11DB595A7952C
:101660009795879501979093C5008093C400E1EC0E
:10167000F0E088E18083808180688083EFE8F2E099
:101680008BE091E09383828391838083089590918E
:101690008E0281E0911101C080E0089510927C02D9
:1016A00010928E0208951F920F920FB60F9211247E
:1016B0002F938F939F93EF93FF9380917C018823C7
:1016C00029F180917B0120917C0190E0821B91099E
:1016D0005AF4E0917B0180917C01F0E0E81BF10974
:1016E000E458FD4F90810AC0E0917B0180917C011C
:1016F000F0E0E81BF109E358FE4F908180917C01F6
:10170000815080937C019093C60005C0E1ECF0E02D
:1017100080818F7D8083FF91EF919F918F912F9199
:101720000F900FBE0F901F9018951F920F920FB63B
:101730000F9211242F933F934F935F936F937F9357
:101740008F939F93AF93BF93CF93EF93FF93C091EA
:10175000C60080915201882349F080917C018F3F1F
:1017600029F060E070E08C2F0E949A0A80918E022E
:10177000803120F081E080938D0218C0CD3009F4D3
:10178000CAE0E0917C0281E08E0F80937C02F0E061
:10179000E358FD4FC08380918E028F5F80938E024D
:1017A00080917C02803111F410927C02FF91EF91C4
:1017B000CF91BF91AF919F918F917F916F915F91E9
:1017C0004F913F912F910F900FBE0F901F90189542
:1017D00094B1906B94B92C9A90E59CBD883021F01F
:1017E000803211F0823019F491E09DBD01C01DBC22
:1017F000803269F028F4883071F0803161F00EC0D9
:10180000803429F0803851F48CB581608CBD8CB562
:1018100082608CBD03C08CB581608CBD2C9808950E
:101820008EBD0DB407FEFDCF8EB508958FEF87B93D
:1018300084E08AB981E0809353010895CF92DF92CA
:10184000EF92FF9280915301882309F444C00E94D3
:10185000C0096A3071058105910550F482E08BB9A9
:101860000E94C009FB01E65EFE4F808188B933C04B
:1018700080911901843089F40E94C0092AE030E087
:1018800040E050E00E94B90DFB01E65EFE4F808112
:1018900088B982E0809319011BC00E94C0090F2EF5
:1018A000FAE0CF2ED12CE12CF12CF02DA7019601DE
:1018B0000E94B90DCA01B901A70196010E94B90D94
:1018C000FB01E65EFE4F808188B984E080931901B8
:1018D000809119018BB9FF90EF90DF90CF90089520
:1018E0009F938F937F936F938DE992E09F938F9354
:1018F0000E94DA0E0F900F900F900F900F900F90A4
:10190000089588E992E09F938F930E94DA0E0F90DA
:101910000F90089583E992E09F938F930E94DA0ECF
:101920000F900F9008958EE892E09F938F930E94FE
:10193000DA0E0F900F900895CF93DF93C62FD42F18
:10194000682F880F770B8C2F0C2E000C990B0E94A0
:10195000700C0E948A0CDC173CF080E290E00E9440
:10196000000FCF5FDC17CCF70E94810CDF91CF9185
:1019700008950F931F93CF93DF93C62FD42F062E76
:10198000000C770B082E000C990B0E94700C0E9423
:101990008A0CCD177CF407E812E080E290E00E9408
:1019A000000F1F930F930E94DA0ECF5F0F900F90DE
:1019B000CD179CF380E290E00E94000F0E94810C02
:1019C000DF91CF911F910F910895CF92DF92EF9207
:1019D000FF920F931F93CF93DF93F62EE72ED82E0F
:1019E000C92EC22FD32F142F052F4FE460E081E0C2
:1019F0000E949C0C4FE460E087E00E949C0C48E24F
:101A00006AE08AE00E949C0C48E26AE082E10E945F
:101A10009C0C42E16AE089E00E94B90C42E16AE074
:101A200089E20E94B90C6CE070E08CE090E00E94CA
:101A3000700CCF92DF92EF92FF928BE792E09F9330
:101A40008F930E94DA0E6DE070E08CE090E00E94CF
:101A5000700C81E692E09F938F930E94DA0E6FE004
:101A600070E08CE090E00E94700C0F931F93DF9366
:101A7000CF9385E592E09F938F930E94DA0E60E109
:101A800070E08CE090E00E94700C89E392E09F93FC
:101A90008F930E94DA0E8DB79EB740960FB6F894DA
:101AA0009EBF0FBE8DBFDF91CF911F910F91FF9011
:101AB000EF90DF90CF90089510925401109255014D
:101AC000109256011092570116BC8CE787BD82E038
:101AD00084BD83E085BDEEE6F0E080818260808396
:101AE00085B3827085BB08952FB7F8946091540137
:101AF00070915501809156019091570122230CF469
:101B0000789408951F920F920FB60F9211242F937D
:101B10003F934F935F936F937F938F939F93AF9375
:101B2000BF93EF93FF938091540190915501A09141
:101B30005601B09157010196A11DB11D809354012A
:101B400090935501A0935601B09357010E941E0C2B
:101B5000FF91EF91BF91AF919F918F917F916F9185
:101B60005F914F913F912F910F900FBE0F901F905B
:101B70001895A1E21A2EAA1BBB1BFD010DC0AA1FBE
:101B8000BB1FEE1FFF1FA217B307E407F50720F0E6
:101B9000A21BB30BE40BF50B661F771F881F991F61
:101BA0001A9469F760957095809590959B01AC01AA
:101BB000BD01CF010895052E97FB1EF400940E94ED
:101BC000F20D57FD07D00E94B90D07FC03D04EF46B
:101BD0000C94F20D50954095309521953F4F4F4F05
:101BE0005F4F089590958095709561957F4F8F4FC9
:101BF0009F4F08958F929F92AF92BF92CF92DF92A4
:101C0000EF92FF92CF93DF93EC01688179818A8113
:101C10009B81611571058105910521F464E279EDDF
:101C20008BE597E02DE133EF41E050E00E94DB0DC2
:101C300049015A019B01AC01A7EAB1E40E94981145
:101C40006B017C01ACEEB4EFA50194010E94A611DA
:101C5000DC01CB018C0D9D1DAE1DBF1DB7FF03C068
:101C60000197A109B04888839983AA83BB83BC01EB
:101C7000CD019F77DF91CF91FF90EF90DF90CF90D4
:101C8000BF90AF909F908F9008958F929F92AF9248
:101C9000BF92CF92DF92EF92FF926091000170911C
:101CA0000101809102019091030161157105810587
:101CB000910521F464E279ED8BE597E02DE133EFB6
:101CC00041E050E00E94DB0D49015A019B01AC014B
:101CD000A7EAB1E40E9498116B017C01ACEEB4EF6D
:101CE000A50194010E94A611DC01CB018C0D9D1D64
:101CF000AE1DBF1DB7FF03C00197A109B048809377
:101D0000000190930101A0930201B0930301BC0173
:101D1000CD019F77FF90EF90DF90CF90BF90AF9075
:101D20009F908F90089560930001709301018093BC
:101D30000201909303010895CF93DF93EC012B816F
:101D400020FF33C026FF0AC02F7B2B838E819F810B
:101D500001969F838E838A8190E029C022FF0FC065
:101D6000E881F9818081082E000C990B009719F405
:101D700020622B831AC03196F983E8830EC0EA856E
:101D8000FB85099597FF09C02B81019611F080E230
:101D900001C080E1822B8B8308C02E813F812F5FA1
:101DA0003F4F3F832E83992702C08FEF9FEFDF9134
:101DB000CF910895A0E0B0E0E0EEFEE00C94B91100
:101DC000AE01495F5F4FDA016D917D91AD010FE882
:101DD00012E0F80182819381DC0113962C91139714
:101DE000286013962C930E94070FD8011296ED914C
:101DF000FC9113972381277F2383E4E00C94D51172
:101E000060919102709192020E94FE100895ABE0E1
:101E1000B0E0EDE0FFE00C94AB116C017B018A01B6
:101E2000FC0117821682838181FFCCC1CE0101960D
:101E30003C01F6019381F70193FD859193FF819118
:101E40007F01882309F4BAC1853239F493FD859165
:101E500093FF81917F01853229F4B60190E00E94C1
:101E6000FE10E7CF912C212C312CFFE1F315D8F097
:101E70008B3279F038F4803279F08332A1F4232D5B
:101E800020611DC08D3261F0803369F4232D216003
:101E900016C0832D8260382EE32DE4603E2E2AC0CA
:101EA000F32DF8601DC037FC2DC020ED280F2A301F
:101EB00040F08E32B9F436FC81C1232D2064322EDD
:101EC00019C036FE06C08AE0989E200D1124922E7D
:101ED00011C0EAE02E9E200D1124222EF32DF06277
:101EE0003F2E08C08C3621F4832D8068382E02C026
:101EF000883641F4F70193FD859193FF81917F012D
:101F00008111B3CF982F9F7D9554933028F40C5FA7
:101F10001F4F9FE399830DC0833631F0833771F0F3
:101F2000833509F059C021C0F801808189830E5F93
:101F30001F4F88248394912C530113C02801F2E091
:101F40004F0E511CF801A080B18036FE03C0692DF0
:101F500070E002C06FEF7FEFC5010E94F3104C01EB
:101F60008201F32DFF773F2E16C0280122E0420E9A
:101F7000511CF801A080B18036FE03C0692D70E0CD
:101F800002C06FEF7FEFC5010E94E8104C01F32DF6
:101F9000F0683F2E820133FC1BC0822D90E0881632
:101FA0009906B0F4B60180E290E00E94FE102A94F7
:101FB000F4CFF50137FC859137FE81915F01B601C1
:101FC00090E00E94FE1021102A9421E0821A9108CC
:101FD0008114910471F7E8C0843611F0893641F517
:101FE000F80137FE07C060817181828193810C5FA7
:101FF0001F4F08C060817181072E000C880B990B60
:102000000E5F1F4FF32DFF763F2E97FF09C090956F
:102010008095709561957F4F8F4F9F4FF0683F2E51
:102020002AE030E0A3010E943A11882E861845C0AC
:10203000853731F4232D2F7EB22E2AE030E025C0E3
:10204000932D997FB92E8F36C1F018F4883579F029
:10205000B5C0803719F0883721F0B0C0E92FE061B2
:10206000BE2EB4FE0DC0FB2DF460BF2E09C034FEA1
:102070000AC0292F2660B22E06C028E030E005C035
:1020800020E130E002C020E132E0F801B7FE07C0F5
:1020900060817181828193810C5F1F4F06C06081D6
:1020A000718180E090E00E5F1F4FA3010E943A1102
:1020B000882E8618FB2DFF773F2E36FE0DC0232D70
:1020C0002E7FA22E891458F434FE0BC032FC09C0B6
:1020D000832D8E7EA82E05C0B82CA32C03C0B82C4F
:1020E00001C0B92CA4FE0FC0FE01E80DF11D8081D6
:1020F000803321F49A2D997EA92E09C0A2FE06C034
:10210000B394B39404C08A2D867809F0B394A3FCE9
:1021100011C0A0FE06C0B21488F4280C922C9B18A3
:102120000EC0B21460F4B60180E290E00E94FE108E
:10213000B394F7CFB21418F42B1802C0982C212CAA
:10214000A4FE10C0B60180E390E00E94FE10A2FE43
:1021500017C0A1FC03C088E790E002C088E590E0CA
:10216000B6010CC08A2D867859F0A1FE02C08BE220
:1021700001C080E2A7FC8DE2B60190E00E94FE1053
:10218000891438F4B60180E390E00E94FE109A941E
:10219000F7CF8A94F301E80DF11D8081B60190E03C
:1021A0000E94FE108110F5CF222009F442CEB60124
:1021B00080E290E00E94FE102A94F6CFF60186811C
:1021C000978102C08FEF9FEF2B96E2E10C94C7112D
:1021D000FC010590615070400110D8F780959095F2
:1021E0008E0F9F1F0895FC016150704001900110F7
:1021F000D8F7809590958E0F9F1F08950F931F938A
:10220000CF93DF93FB01238121FD03C08FEF9FEF6D
:102210002CC022FF16C04681578124813581421788
:10222000530744F4A081B1819D012F5F3F4F31835B
:1022300020838C93268137812F5F3F4F37832683FE
:1022400014C08B01EC01FB010084F185E02D0995A0
:10225000892BE1F6D80116968D919C9117970196DE
:1022600017969C938E931697CE01DF91CF911F9175
:102270000F910895FA01AA27283051F1203181F1F8
:10228000E8946F936E7F6E5F7F4F8F4F9F4FAF4F7E
:10229000B1E03ED0B4E03CD0670F781F891F9A1F91
:1022A000A11D680F791F8A1F911DA11D6A0F711D45
:1022B000811D911DA11D20D009F468943F912AE051
:1022C000269F11243019305D3193DEF6CF01089539
:1022D000462F4770405D4193B3E00FD0C9F7F6CF6A
:1022E000462F4F70405D4A3318F0495D31FD405232
:1022F000419302D0A9F7EACFB4E0A69597958795C8
:1023000077956795BA95C9F70097610571050895A6
:102310009B01AC010A2E0694579547953795279552
:10232000BA95C9F7620F731F841F951FA01D0895EA
:102330000E94E211A59F900DB49F900DA49F800D67
:10234000911D11240895B7FF0C9498110E949811C3
:10235000821B930B08952F923F924F925F926F9240
:102360007F928F929F92AF92BF92CF92DF92EF9225
:10237000FF920F931F93CF93DF93CDB7DEB7CA1BA6
:10238000DB0B0FB6F894DEBF0FBECDBF09942A88D1
:10239000398848885F846E847D848C849B84AA8479
:1023A000B984C884DF80EE80FD800C811B81AA8106
:1023B000B981CE0FD11D0FB6F894DEBF0FBECDBFD1
:1023C000ED010895A29FB001B39FC001A39F700DBE
:1023D000811D1124911DB29F700D811D1124911D2D
:0623E0000895F894FFCF00
:1023E600010000003C13000206070F000000030076
:1023F6000000009A0AD20A0000043F065B4F666D91
:102406007D077F6F41535445524F4944532034341E
:102416003835323539330047414D45204F56455200
:022426000000B4
:00000001FF
